{
  "contractName": "ChildContract",
  "abi": [
    {
      "constant": true,
      "inputs": [],
      "name": "name",
      "outputs": [
        {
          "name": "",
          "type": "bytes32"
        }
      ],
      "payable": false,
      "stateMutability": "view",
      "type": "function"
    },
    {
      "constant": true,
      "inputs": [],
      "name": "identity",
      "outputs": [
        {
          "name": "",
          "type": "uint8"
        }
      ],
      "payable": false,
      "stateMutability": "view",
      "type": "function"
    },
    {
      "constant": true,
      "inputs": [],
      "name": "owner",
      "outputs": [
        {
          "name": "",
          "type": "address"
        }
      ],
      "payable": false,
      "stateMutability": "view",
      "type": "function"
    },
    {
      "inputs": [
        {
          "name": "id",
          "type": "uint8"
        },
        {
          "name": "own",
          "type": "address"
        },
        {
          "name": "nm",
          "type": "bytes32"
        }
      ],
      "payable": false,
      "stateMutability": "nonpayable",
      "type": "constructor"
    },
    {
      "anonymous": false,
      "inputs": [
        {
          "indexed": false,
          "name": "identity",
          "type": "uint8"
        },
        {
          "indexed": false,
          "name": "from",
          "type": "bytes32"
        },
        {
          "indexed": false,
          "name": "to",
          "type": "bytes32"
        }
      ],
      "name": "ChildOwnerTransfered",
      "type": "event"
    },
    {
      "constant": false,
      "inputs": [
        {
          "name": "newOwner",
          "type": "address"
        },
        {
          "name": "nm",
          "type": "bytes32"
        }
      ],
      "name": "transferOwnership",
      "outputs": [],
      "payable": false,
      "stateMutability": "nonpayable",
      "type": "function"
    },
    {
      "constant": true,
      "inputs": [
        {
          "name": "addr",
          "type": "address"
        }
      ],
      "name": "isOwner",
      "outputs": [
        {
          "name": "",
          "type": "bool"
        }
      ],
      "payable": false,
      "stateMutability": "view",
      "type": "function"
    }
  ],
  "bytecode": "0x6060604052341561000f57600080fd5b60405160608061045683398101604052808051906020019091908051906020019091908051906020019091905050826000806101000a81548160ff021916908360ff16021790555081600060016101000a81548173ffffffffffffffffffffffffffffffffffffffff021916908373ffffffffffffffffffffffffffffffffffffffff16021790555080600181600019169055505050506103a1806100b56000396000f30060606040526004361061006d576000357c0100000000000000000000000000000000000000000000000000000000900463ffffffff16806306fdde03146100725780632c159a1a146100a35780632f54bf6e146100d257806389e6b5fb146101235780638da5cb5b14610169575b600080fd5b341561007d57600080fd5b6100856101be565b60405180826000191660001916815260200191505060405180910390f35b34156100ae57600080fd5b6100b66101c4565b604051808260ff1660ff16815260200191505060405180910390f35b34156100dd57600080fd5b610109600480803573ffffffffffffffffffffffffffffffffffffffff169060200190919050506101d6565b604051808215151515815260200191505060405180910390f35b341561012e57600080fd5b610167600480803573ffffffffffffffffffffffffffffffffffffffff169060200190919080356000191690602001909190505061022f565b005b341561017457600080fd5b61017c61034f565b604051808273ffffffffffffffffffffffffffffffffffffffff1673ffffffffffffffffffffffffffffffffffffffff16815260200191505060405180910390f35b60015481565b6000809054906101000a900460ff1681565b60008060019054906101000a900473ffffffffffffffffffffffffffffffffffffffff1673ffffffffffffffffffffffffffffffffffffffff168273ffffffffffffffffffffffffffffffffffffffff16149050919050565b60008060019054906101000a900473ffffffffffffffffffffffffffffffffffffffff1673ffffffffffffffffffffffffffffffffffffffff163373ffffffffffffffffffffffffffffffffffffffff1614151561028c57600080fd5b600154905082600060016101000a81548173ffffffffffffffffffffffffffffffffffffffff021916908373ffffffffffffffffffffffffffffffffffffffff16021790555081600181600019169055507f5c621ab88898e6e9e72ba57f111357004c39d451619cf9004f8e0d90e1058cd66000809054906101000a900460ff1682600154604051808460ff1660ff16815260200183600019166000191681526020018260001916600019168152602001935050505060405180910390a1505050565b600060019054906101000a900473ffffffffffffffffffffffffffffffffffffffff16815600a165627a7a723058205ead2eee54ab30c6c1a912a07c076133800e659ade177fccd8e76895546946280029",
  "source": "pragma solidity ^0.4.4;\r\n\r\n/**\r\n * A Contract can create other contracts.\r\n * Represents an asset such as car, diamond, land-deed ....\r\n **/\r\n\r\ncontract  ChildContract {\r\n    // Represents the identifier for some kind of asset\r\n\r\n    uint8     public  identity;\r\n    address   public  owner;\r\n    bytes32   public  name;\r\n\r\n    modifier  OwnerOnly {if(msg.sender != owner)  revert(); else _;}\r\n    event     ChildOwnerTransfered(uint8 identity, bytes32 from, bytes32 to);\r\n\r\n    // Constructor\r\n    function  ChildContract(uint8 id, address own, bytes32 nm) public {\r\n      identity = id;\r\n      owner = own;\r\n      name = nm;\r\n    }\r\n\r\n    // transfer the ownership\r\n    function  transferOwnership (address newOwner, bytes32 nm) public OwnerOnly {\r\n        bytes32  former = name; \r\n        owner = newOwner;\r\n        name = nm;\r\n        emit ChildOwnerTransfered(identity, former, name);\r\n    }\r\n    // checks if caller is the owner\r\n    function  isOwner(address addr) public view returns(bool) {\r\n        return (addr == owner);\r\n    }\r\n}\r\n\r\n/**\r\n * This contract creates multiple child contracts.\r\n **/\r\ncontract ContractFactory {\r\n    // Maintains all the child contracts\r\n    ChildContract[] children;\r\n    // Price of the asset\r\n    uint8    public   initialPrice;\r\n\r\n    // Constructor\r\n    // Creates the child contracts\r\n    function ContractFactory(uint8  numParts, uint8   price) public {\r\n        for(uint8 i = 0; i < numParts; i++){\r\n            children.push(new ChildContract(i, this, \"***\"));\r\n        }\r\n        initialPrice = price;\r\n    }\r\n\r\n    // Anyone can pay the price and purchase the asset\r\n\r\n    function  purchase(bytes32 name) payable public {\r\n\r\n        if(msg.value < initialPrice) revert();\r\n\r\n        // Look for available asset i.e., one that is not sold yet\r\n        for(uint8 i = 0; i < children.length; i++){\r\n            // Check if contract factoy is the owner\r\n            if(children[i].isOwner(this)){\r\n                children[i].transferOwnership(msg.sender, name);\r\n                return;\r\n            }\r\n        }\r\n        // No more assets available - so throw an exception\r\n        revert();\r\n    }\r\n\r\n\r\n\r\n    // Returns the information about the child contract at specified index\r\n    function  getInfo(uint8 childIndex) public constant returns(uint8, address, bytes32){\r\n        // Simply return the values\r\n        return (children[childIndex].identity(),children[childIndex].owner(),children[childIndex].name());\r\n    }\r\n\r\n    // Returns the child contract address\r\n    function  getChildContractAddress(uint8 childIndex) public view returns (address){\r\n        return address(children[childIndex]);\r\n    }\r\n\r\n    // Returns name of the owner based on the child index\r\n    function  getOwnerName(uint8 childIndex) public constant returns(bytes32){\r\n        bytes32  namer = children[childIndex].name();\r\n        return namer;\r\n    }\r\n    // Returns the count of the children\r\n    function  getChildrenCount() public constant returns (uint){\r\n        return children.length;\r\n    }\r\n  \r\n}\r\n",
  "sourcePath": "C:\\Users\\Rajeev\\Documents\\Course\\Blockchain-Course\\workspace\\Blockchain-Course-Patterns\\contracts\\ContractFactory.sol",
  "compiler": {
    "name": "solc",
    "version": "0.4.21+commit.dfe3193c.Emscripten.clang"
  },
  "schemaVersion": "2.0.0",
  "updatedAt": "2018-04-29T12:38:00.062Z"
}