{
  "contractName": "ConvertLib",
  "abi": [
    {
      "constant": false,
      "inputs": [
        {
          "name": "amount",
          "type": "uint256"
        },
        {
          "name": "conversionRate",
          "type": "uint256"
        }
      ],
      "name": "convert",
      "outputs": [
        {
          "name": "convertedAmount",
          "type": "uint256"
        }
      ],
      "payable": false,
      "stateMutability": "nonpayable",
      "type": "function"
    }
  ],
  "bytecode": "0x60d161002f600b82828239805160001a6073146000811461001f57610021565bfe5b5030600052607381538281f30073000000000000000000000000000000000000000030146060604052600436106056576000357c0100000000000000000000000000000000000000000000000000000000900463ffffffff16806396e4ee3d14605b575b600080fd5b8115606557600080fd5b608260048080359060200190919080359060200190919050506098565b6040518082815260200191505060405180910390f35b60008183029050929150505600a165627a7a72305820091e8ff9f10319c7b32e2ec580e204a053cfb9614e81e1b7178db9464ebf89910029",
  "source": "pragma solidity ^0.4.4;\r\n\r\nlibrary ConvertLib{\r\n\tfunction convert(uint amount,uint conversionRate) public returns (uint convertedAmount)\r\n\t{\r\n\t\treturn amount * conversionRate;\r\n\t}\r\n}\r\n",
  "sourcePath": "C:\\Users\\Rajeev\\Documents\\Course\\Blockchain-Course\\workspace\\Blockchain-Course-Patterns\\contracts\\ConvertLib.sol",
  "compiler": {
    "name": "solc",
    "version": "0.4.21+commit.dfe3193c.Emscripten.clang"
  },
  "schemaVersion": "2.0.0",
  "updatedAt": "2018-04-29T12:38:00.065Z"
}