{
  "contractName": "NameRegistry",
  "abi": [
    {
      "constant": false,
      "inputs": [
        {
          "name": "name",
          "type": "bytes32"
        },
        {
          "name": "conAddress",
          "type": "address"
        },
        {
          "name": "ver",
          "type": "uint16"
        }
      ],
      "name": "registerName",
      "outputs": [
        {
          "name": "",
          "type": "bool"
        }
      ],
      "payable": false,
      "stateMutability": "nonpayable",
      "type": "function"
    },
    {
      "constant": true,
      "inputs": [
        {
          "name": "name",
          "type": "bytes32"
        }
      ],
      "name": "getContractInfo",
      "outputs": [
        {
          "name": "",
          "type": "address"
        },
        {
          "name": "",
          "type": "uint16"
        }
      ],
      "payable": false,
      "stateMutability": "view",
      "type": "function"
    },
    {
      "constant": true,
      "inputs": [],
      "name": "removeContract",
      "outputs": [
        {
          "name": "",
          "type": "bool"
        }
      ],
      "payable": false,
      "stateMutability": "view",
      "type": "function"
    }
  ],
  "bytecode": "0x6060604052341561000f57600080fd5b6104958061001e6000396000f300606060405260043610610057576000357c0100000000000000000000000000000000000000000000000000000000900463ffffffff1680630958f83d1461005c578063613e2de2146100c7578063fe389e091461013d575b600080fd5b341561006757600080fd5b6100ad60048080356000191690602001909190803573ffffffffffffffffffffffffffffffffffffffff1690602001909190803561ffff1690602001909190505061016a565b604051808215151515815260200191505060405180910390f35b34156100d257600080fd5b6100ec6004808035600019169060200190919050506103eb565b604051808373ffffffffffffffffffffffffffffffffffffffff1673ffffffffffffffffffffffffffffffffffffffff1681526020018261ffff1661ffff1681526020019250505060405180910390f35b341561014857600080fd5b610150610461565b604051808215151515815260200191505060405180910390f35b600060018261ffff16101561017e57600080fd5b6000806000866000191660001916815260200190815260200160002060010160009054906101000a900473ffffffffffffffffffffffffffffffffffffffff1673ffffffffffffffffffffffffffffffffffffffff1614156102cf5733600080866000191660001916815260200190815260200160002060000160006101000a81548173ffffffffffffffffffffffffffffffffffffffff021916908373ffffffffffffffffffffffffffffffffffffffff16021790555082600080866000191660001916815260200190815260200160002060010160006101000a81548173ffffffffffffffffffffffffffffffffffffffff021916908373ffffffffffffffffffffffffffffffffffffffff16021790555081600080866000191660001916815260200190815260200160002060010160146101000a81548161ffff021916908361ffff1602179055506103df565b3373ffffffffffffffffffffffffffffffffffffffff16600080866000191660001916815260200190815260200160002060000160009054906101000a900473ffffffffffffffffffffffffffffffffffffffff1673ffffffffffffffffffffffffffffffffffffffff1614151561034a57600090506103e4565b82600080866000191660001916815260200190815260200160002060010160006101000a81548173ffffffffffffffffffffffffffffffffffffffff021916908373ffffffffffffffffffffffffffffffffffffffff16021790555081600080866000191660001916815260200190815260200160002060010160146101000a81548161ffff021916908361ffff1602179055505b600190505b9392505050565b600080600080846000191660001916815260200190815260200160002060010160009054906101000a900473ffffffffffffffffffffffffffffffffffffffff16600080856000191660001916815260200190815260200160002060010160149054906101000a900461ffff1691509150915091565b6000809050905600a165627a7a72305820671fa4c46234723c83ce0fb3c4b97ff217960f00f2d5424e74557f4871ea8a8d0029",
  "source": "pragma solidity ^0.4.4;\r\n\r\n/**\r\n * Creates a registry for contracts\r\n **/\r\ncontract NameRegistry {\r\n\r\n    // Manages info about the contract instance\r\n    struct ContractInfo {\r\n        address   owner;\r\n        address   contractInst;\r\n        // The first version added to registry MUST be >= 1\r\n        // Otherwise the name will NOT be added\r\n        uint16    version;\r\n    }\r\n\r\n    // Manages the name to address mapping\r\n    mapping(bytes32 => ContractInfo)  nameInfo;\r\n\r\n    // Adds the version of the contract to be used by apps\r\n    function  registerName (bytes32 name, address conAddress, uint16  ver) public returns(bool){\r\n\r\n        // Version MUST start with number 1\r\n        if(ver < 1) revert();\r\n\r\n        if(nameInfo[name].contractInst == 0){\r\n            nameInfo[name].owner = msg.sender;\r\n            nameInfo[name].contractInst = conAddress;\r\n            nameInfo[name].version = ver;\r\n        } else {\r\n            if(nameInfo[name].owner != msg.sender)  return false;\r\n            nameInfo[name].contractInst = conAddress;\r\n            nameInfo[name].version = ver;\r\n        }\r\n        return true;\r\n    }\r\n\r\n    // Contracts having a dependency on this contract will invoke this function\r\n    function  getContractInfo(bytes32 name) public constant returns(address,uint16){\r\n        return (nameInfo[name].contractInst, nameInfo[name].version);\r\n    }\r\n\r\n    function  removeContract() public view returns(bool){\r\n        // Code this on your own\r\n        return false;\r\n    }\r\n\r\n}\r\n",
  "sourcePath": "C:\\Users\\Rajeev\\Documents\\Course\\Blockchain-Course\\workspace\\Blockchain-Course-Patterns\\contracts\\NameRegistry.sol",
  "compiler": {
    "name": "solc",
    "version": "0.4.21+commit.dfe3193c.Emscripten.clang"
  },
  "schemaVersion": "2.0.0",
  "updatedAt": "2018-04-29T12:38:00.066Z"
}