{
  "contractName": "SelfDestruct",
  "abi": [
    {
      "constant": true,
      "inputs": [],
      "name": "someValue",
      "outputs": [
        {
          "name": "",
          "type": "string"
        }
      ],
      "payable": false,
      "stateMutability": "view",
      "type": "function"
    },
    {
      "inputs": [],
      "payable": false,
      "stateMutability": "nonpayable",
      "type": "constructor"
    },
    {
      "constant": false,
      "inputs": [
        {
          "name": "value",
          "type": "string"
        }
      ],
      "name": "setValue",
      "outputs": [],
      "payable": false,
      "stateMutability": "nonpayable",
      "type": "function"
    },
    {
      "constant": false,
      "inputs": [],
      "name": "killContract",
      "outputs": [],
      "payable": false,
      "stateMutability": "nonpayable",
      "type": "function"
    }
  ],
  "bytecode": "0x60606040526040805190810160405280600b81526020017f4e4f542d5345542d5945540000000000000000000000000000000000000000008152506001908051906020019061004f9291906100a0565b50341561005b57600080fd5b336000806101000a81548173ffffffffffffffffffffffffffffffffffffffff021916908373ffffffffffffffffffffffffffffffffffffffff160217905550610145565b828054600181600116156101000203166002900490600052602060002090601f016020900481019282601f106100e157805160ff191683800117855561010f565b8280016001018555821561010f579182015b8281111561010e5782518255916020019190600101906100f3565b5b50905061011c9190610120565b5090565b61014291905b8082111561013e576000816000905550600101610126565b5090565b90565b61037a806101546000396000f300606060405260043610610057576000357c0100000000000000000000000000000000000000000000000000000000900463ffffffff1680631c02708d1461005c5780634a627e611461007157806393a09352146100ff575b600080fd5b341561006757600080fd5b61006f61015c565b005b341561007c57600080fd5b6100846101f1565b6040518080602001828103825283818151815260200191508051906020019080838360005b838110156100c45780820151818401526020810190506100a9565b50505050905090810190601f1680156100f15780820380516001836020036101000a031916815260200191505b509250505060405180910390f35b341561010a57600080fd5b61015a600480803590602001908201803590602001908080601f0160208091040260200160405190810160405280939291908181526020018383808284378201915050505050509190505061028f565b005b6000809054906101000a900473ffffffffffffffffffffffffffffffffffffffff1673ffffffffffffffffffffffffffffffffffffffff163373ffffffffffffffffffffffffffffffffffffffff161415156101b757600080fd5b6000809054906101000a900473ffffffffffffffffffffffffffffffffffffffff1673ffffffffffffffffffffffffffffffffffffffff16ff5b60018054600181600116156101000203166002900480601f0160208091040260200160405190810160405280929190818152602001828054600181600116156101000203166002900480156102875780601f1061025c57610100808354040283529160200191610287565b820191906000526020600020905b81548152906001019060200180831161026a57829003601f168201915b505050505081565b80600190805190602001906102a59291906102a9565b5050565b828054600181600116156101000203166002900490600052602060002090601f016020900481019282601f106102ea57805160ff1916838001178555610318565b82800160010185558215610318579182015b828111156103175782518255916020019190600101906102fc565b5b5090506103259190610329565b5090565b61034b91905b8082111561034757600081600090555060010161032f565b5090565b905600a165627a7a72305820d1839d2e130100cd3d208ad6ab1acf2d107305f6fc6f4bdfc10e3c2e2d2019d40029",
  "source": "pragma solidity ^0.4.4;\r\n\r\ncontract SelfDestruct {\r\n\r\n    address         owner;\r\n    string  public  someValue = \"NOT-SET-YET\";\r\n\r\n    modifier  OwnerOnly {\r\n        if(msg.sender != owner){\r\n            revert();\r\n        } else {\r\n            _;\r\n        }\r\n    }\r\n\r\n    // Constructor\r\n    function SelfDestruct() public {\r\n        owner = msg.sender;\r\n    }\r\n\r\n    // Sets the storage variable\r\n    function  setValue(string value) public {\r\n        someValue = value;\r\n    }\r\n\r\n    // This is where the contract is destroyed\r\n    function  killContract() public OwnerOnly {\r\n        // suicide(owner);\r\n        selfdestruct(owner);\r\n    }\r\n\r\n}\r\n\r\n\r\n",
  "sourcePath": "C:\\Users\\Rajeev\\Documents\\Course\\Blockchain-Course\\workspace\\Blockchain-Course-Patterns\\contracts\\SelfDestruct.sol",
  "compiler": {
    "name": "solc",
    "version": "0.4.21+commit.dfe3193c.Emscripten.clang"
  },
  "schemaVersion": "2.0.0",
  "updatedAt": "2018-04-29T12:38:00.067Z"
}