{
  "contractName": "UserAddressRegistry",
  "abi": [
    {
      "inputs": [],
      "payable": false,
      "stateMutability": "nonpayable",
      "type": "constructor"
    },
    {
      "constant": false,
      "inputs": [
        {
          "name": "name",
          "type": "bytes32"
        }
      ],
      "name": "registerName",
      "outputs": [
        {
          "name": "",
          "type": "bool"
        }
      ],
      "payable": false,
      "stateMutability": "nonpayable",
      "type": "function"
    },
    {
      "constant": false,
      "inputs": [
        {
          "name": "given",
          "type": "address"
        },
        {
          "name": "name",
          "type": "bytes32"
        }
      ],
      "name": "updateName",
      "outputs": [
        {
          "name": "",
          "type": "bool"
        }
      ],
      "payable": false,
      "stateMutability": "nonpayable",
      "type": "function"
    },
    {
      "constant": false,
      "inputs": [
        {
          "name": "given",
          "type": "address"
        }
      ],
      "name": "deleteName",
      "outputs": [
        {
          "name": "",
          "type": "bool"
        }
      ],
      "payable": false,
      "stateMutability": "nonpayable",
      "type": "function"
    },
    {
      "constant": true,
      "inputs": [],
      "name": "count",
      "outputs": [
        {
          "name": "",
          "type": "uint256"
        }
      ],
      "payable": false,
      "stateMutability": "view",
      "type": "function"
    },
    {
      "constant": true,
      "inputs": [
        {
          "name": "index",
          "type": "uint256"
        }
      ],
      "name": "getByIndex",
      "outputs": [
        {
          "name": "",
          "type": "address"
        },
        {
          "name": "",
          "type": "bytes32"
        },
        {
          "name": "",
          "type": "uint256"
        }
      ],
      "payable": false,
      "stateMutability": "view",
      "type": "function"
    },
    {
      "constant": true,
      "inputs": [
        {
          "name": "addr",
          "type": "address"
        }
      ],
      "name": "getByAddress",
      "outputs": [
        {
          "name": "",
          "type": "address"
        },
        {
          "name": "",
          "type": "bytes32"
        },
        {
          "name": "",
          "type": "uint256"
        }
      ],
      "payable": false,
      "stateMutability": "view",
      "type": "function"
    }
  ],
  "bytecode": "0x6060604052341561000f57600080fd5b336000806101000a81548173ffffffffffffffffffffffffffffffffffffffff021916908373ffffffffffffffffffffffffffffffffffffffff160217905550610a828061005e6000396000f300606060405260043610610078576000357c0100000000000000000000000000000000000000000000000000000000900463ffffffff16806306661abd1461007d5780632d883a73146100a65780632eba1c401461011f57806330257bf714610170578063b162a382146101ff578063d6da08051461025d575b600080fd5b341561008857600080fd5b61009061029c565b6040518082815260200191505060405180910390f35b34156100b157600080fd5b6100c760048080359060200190919050506102a9565b604051808473ffffffffffffffffffffffffffffffffffffffff1673ffffffffffffffffffffffffffffffffffffffff1681526020018360001916600019168152602001828152602001935050505060405180910390f35b341561012a57600080fd5b610156600480803573ffffffffffffffffffffffffffffffffffffffff16906020019091905050610395565b604051808215151515815260200191505060405180910390f35b341561017b57600080fd5b6101a7600480803573ffffffffffffffffffffffffffffffffffffffff1690602001909190505061045a565b604051808473ffffffffffffffffffffffffffffffffffffffff1673ffffffffffffffffffffffffffffffffffffffff1681526020018360001916600019168152602001828152602001935050505060405180910390f35b341561020a57600080fd5b610243600480803573ffffffffffffffffffffffffffffffffffffffff16906020019091908035600019169060200190919050506104f3565b604051808215151515815260200191505060405180910390f35b341561026857600080fd5b610282600480803560001916906020019091905050610650565b604051808215151515815260200191505060405180910390f35b6000600280549050905090565b600080600080600280549050851015156102c25761038d565b6002858154811015156102d157fe5b906000526020600020900160009054906101000a900473ffffffffffffffffffffffffffffffffffffffff16905080600160008373ffffffffffffffffffffffffffffffffffffffff1673ffffffffffffffffffffffffffffffffffffffff16815260200190815260200160002060000154600160008473ffffffffffffffffffffffffffffffffffffffff1673ffffffffffffffffffffffffffffffffffffffff168152602001908152602001600020600101549350935093505b509193909250565b60008060009054906101000a900473ffffffffffffffffffffffffffffffffffffffff1673ffffffffffffffffffffffffffffffffffffffff163373ffffffffffffffffffffffffffffffffffffffff16141561045057600160008373ffffffffffffffffffffffffffffffffffffffff1673ffffffffffffffffffffffffffffffffffffffff1681526020019081526020016000206000808201600090556001820160009055505061044782610877565b60019050610455565b600080fd5b919050565b600080600083600160008673ffffffffffffffffffffffffffffffffffffffff1673ffffffffffffffffffffffffffffffffffffffff16815260200190815260200160002060000154600160008773ffffffffffffffffffffffffffffffffffffffff1673ffffffffffffffffffffffffffffffffffffffff168152602001908152602001600020600101549250925092509193909250565b60008060009054906101000a900473ffffffffffffffffffffffffffffffffffffffff1673ffffffffffffffffffffffffffffffffffffffff163373ffffffffffffffffffffffffffffffffffffffff16141561064557600060010260001916600160008573ffffffffffffffffffffffffffffffffffffffff1673ffffffffffffffffffffffffffffffffffffffff168152602001908152602001600020600001546000191614156105a95760009050610640565b81600160008573ffffffffffffffffffffffffffffffffffffffff1673ffffffffffffffffffffffffffffffffffffffff168152602001908152602001600020600001816000191690555042600160003373ffffffffffffffffffffffffffffffffffffffff1673ffffffffffffffffffffffffffffffffffffffff16815260200190815260200160002060010181905550600190505b61064a565b600080fd5b92915050565b600080600102600019168260001916141561072157600060010260001916600160003373ffffffffffffffffffffffffffffffffffffffff1673ffffffffffffffffffffffffffffffffffffffff168152602001908152602001600020600001546000191614151561070f57600160003373ffffffffffffffffffffffffffffffffffffffff1673ffffffffffffffffffffffffffffffffffffffff168152602001908152602001600020600080820160009055600182016000905550505b61071833610877565b60009050610872565b600060010260001916600160003373ffffffffffffffffffffffffffffffffffffffff1673ffffffffffffffffffffffffffffffffffffffff168152602001908152602001600020600001546000191614156107db576002805480600101828161078b91906109d9565b9160005260206000209001600033909190916101000a81548173ffffffffffffffffffffffffffffffffffffffff021916908373ffffffffffffffffffffffffffffffffffffffff160217905550505b81600160003373ffffffffffffffffffffffffffffffffffffffff1673ffffffffffffffffffffffffffffffffffffffff168152602001908152602001600020600001816000191690555042600160003373ffffffffffffffffffffffffffffffffffffffff1673ffffffffffffffffffffffffffffffffffffffff16815260200190815260200160002060010181905550600190505b919050565b60008090505b6002805490508110156109d45760028181548110151561089957fe5b906000526020600020900160009054906101000a900473ffffffffffffffffffffffffffffffffffffffff1673ffffffffffffffffffffffffffffffffffffffff168273ffffffffffffffffffffffffffffffffffffffff1614156109c7575b6001600280549050038110156109ac5760026001820181548110151561091b57fe5b906000526020600020900160009054906101000a900473ffffffffffffffffffffffffffffffffffffffff1660028281548110151561095657fe5b906000526020600020900160006101000a81548173ffffffffffffffffffffffffffffffffffffffff021916908373ffffffffffffffffffffffffffffffffffffffff16021790555080806001019150506108f9565b60028054809190600190036109c19190610a05565b506109d5565b808060010191505061087d565b5b5050565b815481835581811511610a00578183600052602060002091820191016109ff9190610a31565b5b505050565b815481835581811511610a2c57818360005260206000209182019101610a2b9190610a31565b5b505050565b610a5391905b80821115610a4f576000816000905550600101610a37565b5090565b905600a165627a7a72305820ba0a496b883f23b9ca085acf4750d48ad804d9143c30c17dad1b9964af0d6d300029",
  "source": "pragma solidity ^0.4.4;\r\n\r\n/**\r\n * Implements the registry for address => name mapping\r\n * This registry pattern contract is used by thedapps.com for personalizing the user experience\r\n * \r\n * Pattern: Mapping Iteration\r\n **/\r\n\r\ncontract UserAddressRegistry {\r\n\r\n    address   owner;\r\n\r\n\r\n  \r\n  // =======\r\n    struct User {\r\n        bytes32   name;\r\n        uint      lastUpdated;\r\n    }\r\n\r\n    // Manages the mapping between address & name\r\n    mapping(address => User)  addressMap;\r\n\r\n    // Manages the list of addresses\r\n    address[]   addresses;\r\n\r\n    modifier OwnerOnly() {\r\n        if(msg.sender == owner) _;\r\n        else revert();\r\n    }\r\n\r\n    function UserAddressRegistry() public {\r\n        owner = msg.sender;\r\n    }\r\n\r\n    // Registers the name\r\n    function registerName(bytes32 name) public returns (bool){\r\n        // if(name == 0x0) return false;\r\n        if(name == bytes32(0x0)){\r\n            // owner wants to delete the registration\r\n            if(addressMap[msg.sender].name != bytes32(0x0)){\r\n                delete(addressMap[msg.sender]);\r\n            }\r\n            removeFromAddresses(msg.sender);\r\n            return false;\r\n        }\r\n\r\n        if(addressMap[msg.sender].name == bytes32(0x0)){\r\n            addresses.push(msg.sender);\r\n        }\r\n        addressMap[msg.sender].name = name;\r\n        addressMap[msg.sender].lastUpdated = now;\r\n        return true;\r\n    }\r\n\r\n    // Only Owner can update the name \r\n    function updateName(address given, bytes32 name) public OwnerOnly  returns (bool){\r\n        if(addressMap[given].name == bytes32(0x0)) return false;\r\n        addressMap[given].name = name;\r\n        addressMap[msg.sender].lastUpdated = now;\r\n        return true;\r\n    }\r\n\r\n    // Owner can force delete\r\n    function deleteName(address given) public OwnerOnly returns (bool){\r\n        delete(addressMap[given]);\r\n        removeFromAddresses(given);\r\n        return true;\r\n    }\r\n\r\n\r\n    // Returns the count of registered names\r\n    function  count() public constant returns (uint){\r\n        return addresses.length;\r\n    }\r\n\r\n  \r\n    // Returns the address-name at the specified index\r\n    function  getByIndex(uint index) public constant returns (address, bytes32,uint){\r\n        if(index >= addresses.length) return;\r\n        address addr = addresses[index];\r\n        return (addr, addressMap[addr].name, addressMap[addr].lastUpdated);\r\n    }\r\n\r\n    // Returns the address-name by way of the address\r\n    function  getByAddress(address addr) public constant returns (address,bytes32,uint){\r\n        return (addr, addressMap[addr].name, addressMap[addr].lastUpdated);\r\n    }\r\n\r\n    /**\r\n    * Solidity does not provide an out of the box function to remove the \r\n    * element of an array and shrink it.\r\n    **/\r\n    function removeFromAddresses(address addr) private {\r\n        for(uint i = 0; i < addresses.length; i++) {\r\n            if(addr == addresses[i]){\r\n                // This simply zeroes out the element - length stays the same\r\n                //delete(addresses[i]);\r\n\r\n                // This while loop will shrink size of the array\r\n                while (i < addresses.length - 1) {\r\n                    addresses[i] = addresses[i+1];\r\n                    i++;\r\n                }\r\n                addresses.length--;\r\n                return;\r\n            }\r\n        }\r\n    }\r\n}\r\n",
  "sourcePath": "C:\\Users\\Rajeev\\Documents\\Course\\Blockchain-Course\\workspace\\Blockchain-Course-Patterns\\contracts\\UserAddressRegistry.sol",
  "compiler": {
    "name": "solc",
    "version": "0.4.21+commit.dfe3193c.Emscripten.clang"
  },
  "schemaVersion": "2.0.0",
  "updatedAt": "2018-04-29T12:38:00.067Z"
}