{
  "contractName": "WithdrawalContract",
  "abi": [
    {
      "constant": false,
      "inputs": [],
      "name": "pay",
      "outputs": [],
      "payable": true,
      "stateMutability": "payable",
      "type": "function"
    },
    {
      "constant": false,
      "inputs": [],
      "name": "withdraw",
      "outputs": [],
      "payable": false,
      "stateMutability": "nonpayable",
      "type": "function"
    },
    {
      "constant": true,
      "inputs": [],
      "name": "getBalance",
      "outputs": [
        {
          "name": "",
          "type": "uint256"
        }
      ],
      "payable": false,
      "stateMutability": "view",
      "type": "function"
    }
  ],
  "bytecode": "0x6060604052341561000f57600080fd5b6103838061001e6000396000f300606060405260043610610057576000357c0100000000000000000000000000000000000000000000000000000000900463ffffffff16806312065fe01461005c5780631b9265b8146100855780633ccfd60b1461008f575b600080fd5b341561006757600080fd5b61006f6100a4565b6040518082815260200191505060405180910390f35b61008d6100c8565b005b341561009a57600080fd5b6100a2610180565b005b6000803090508073ffffffffffffffffffffffffffffffffffffffff163191505090565b60003414156100d657600080fd5b600080548060010182816100ea91906102d7565b9160005260206000209060020201600060408051908101604052803373ffffffffffffffffffffffffffffffffffffffff16815260200134815250909190915060008201518160000160006101000a81548173ffffffffffffffffffffffffffffffffffffffff021916908373ffffffffffffffffffffffffffffffffffffffff16021790555060208201518160010155505050565b600080600091505b6000805490508210156102ce576000828154811015156101a457fe5b906000526020600020906002020160000160009054906101000a900473ffffffffffffffffffffffffffffffffffffffff1673ffffffffffffffffffffffffffffffffffffffff163373ffffffffffffffffffffffffffffffffffffffff1614156102c1576000808381548110151561021957fe5b90600052602060002090600202016001015411151561023757600080fd5b60008281548110151561024657fe5b90600052602060002090600202016001015490506000808381548110151561026a57fe5b9060005260206000209060020201600101819055503373ffffffffffffffffffffffffffffffffffffffff166108fc829081150290604051600060405180830381858888f1935050505015156102bc57fe5b6102d3565b8180600101925050610188565b600080fd5b5050565b815481835581811511610304576002028160020283600052602060002091820191016103039190610309565b5b505050565b61035491905b8082111561035057600080820160006101000a81549073ffffffffffffffffffffffffffffffffffffffff021916905560018201600090555060020161030f565b5090565b905600a165627a7a72305820688394a65065d2a19fa7566e9a15f063bbab3a58019c6f8441d2b587ed7d74270029",
  "source": "pragma solidity ^0.4.4;\r\n\r\ncontract WithdrawalContract {\r\n\r\n    struct Payer {\r\n        address payer;\r\n        uint    amount;\r\n    }\r\n\r\n    // Array of all payers\r\n    Payer[]  payers;\r\n\r\n    /**\r\n    * Pay to this function\r\n    * To make things easier - payer can pay only once, if tries more than once throw\r\n    **/\r\n    function  pay() public payable {\r\n      \r\n        if(msg.value == 0) revert();\r\n\r\n        payers.push(Payer(msg.sender, msg.value));\r\n    }\r\n\r\n    /**\r\n    * Withdraw using this function\r\n    **/\r\n    function  withdraw() public {\r\n        // Check if there is a balance for the caller\r\n        for(uint i = 0; i < payers.length; i++){\r\n            if(msg.sender == payers[i].payer){\r\n\r\n                require(payers[i].amount > 0);\r\n\r\n                uint amt = payers[i].amount;\r\n                \r\n                payers[i].amount = 0;\r\n\r\n                // revert() if sender returns a false\r\n                // otherwise the \r\n                assert(msg.sender.send(amt));\r\n\r\n                return;\r\n            }\r\n        }\r\n        // That means the address was not found in the list of payers\r\n        revert();\r\n    }\r\n\r\n    function  getBalance() public view returns (uint){\r\n        address thisContractsAddress = address(this);\r\n        return thisContractsAddress.balance;\r\n    }\r\n\r\n}\r\n",
  "sourcePath": "C:\\Users\\Rajeev\\Documents\\Course\\Blockchain-Course\\workspace\\Blockchain-Course-Patterns\\contracts\\WithdrawalContract.sol",
  "compiler": {
    "name": "solc",
    "version": "0.4.21+commit.dfe3193c.Emscripten.clang"
  },
  "schemaVersion": "2.0.0",
  "updatedAt": "2018-04-29T12:38:00.070Z"
}